{"contracts/ViewProfile.sol":{"ViewProfile":{"abi":[{"inputs":[{"internalType":"uint8","name":"value","type":"uint8"}],"name":"InvalidSentiment","type":"error"},{"inputs":[{"internalType":"address","name":"user","type":"address"},{"internalType":"bytes32","name":"topicId","type":"bytes32"}],"name":"TopicNotSet","type":"error"},{"anonymous":false,"inputs":[{"indexed":true,"internalType":"address","name":"user","type":"address"},{"indexed":true,"internalType":"bytes32","name":"topicId","type":"bytes32"},{"indexed":false,"internalType":"enum ViewProfile.Sentiment","name":"sentiment","type":"uint8"},{"indexed":false,"internalType":"uint64","name":"updatedAt","type":"uint64"}],"name":"TopicViewUpdated","type":"event"},{"inputs":[{"internalType":"address","name":"user","type":"address"},{"internalType":"bytes32","name":"topicId","type":"bytes32"}],"name":"getTopicView","outputs":[{"components":[{"internalType":"enum ViewProfile.Sentiment","name":"sentiment","type":"uint8"},{"internalType":"uint64","name":"updatedAt","type":"uint64"}],"internalType":"struct ViewProfile.TopicView","name":"","type":"tuple"}],"stateMutability":"view","type":"function"},{"inputs":[{"internalType":"address","name":"user","type":"address"},{"internalType":"bytes32","name":"topicId","type":"bytes32"}],"name":"hasTopicView","outputs":[{"internalType":"bool","name":"","type":"bool"}],"stateMutability":"view","type":"function"},{"inputs":[{"internalType":"bytes32","name":"topicId","type":"bytes32"},{"internalType":"enum ViewProfile.Sentiment","name":"sentiment","type":"uint8"}],"name":"setTopicView","outputs":[],"stateMutability":"nonpayable","type":"function"}],"evm":{"bytecode":{"linkReferences":{},"object":"608060405234801561001057600080fd5b506103ee806100206000396000f3fe608060405234801561001057600080fd5b50600436106100415760003560e01c8063a3a382a014610046578063a4c377a6146100a0578063d828efa2146100b5575b600080fd5b61008b6100543660046102c4565b6001600160a01b03919091166000908152602081815260408083209383529290522054610100900467ffffffffffffffff16151590565b60405190151581526020015b60405180910390f35b6100b36100ae3660046102fc565b6100d5565b005b6100c86100c33660046102c4565b610201565b6040516100979190610368565b600281818111156100e8576100e8610330565b60ff1611156101275780600281111561010357610103610330565b6040516310b160cb60e31b815260ff90911660048201526024015b60405180910390fd5b6000429050604051806040016040528083600281111561014957610149610330565b815267ffffffffffffffff831660209182015233600090815280825260408082208783529092522081518154829060ff1916600183600281111561018f5761018f610330565b021790555060209190910151815467ffffffffffffffff9091166101000268ffffffffffffffff0019909116179055604051839033907f19370dc643caa2362d6539bce3534a2d2516f9c6a335517420d6175325df3e21906101f49086908690610393565b60405180910390a3505050565b60408051808201909152600080825260208201526001600160a01b03831660009081526020818152604080832085845290915280822081518083019092528054829060ff16600281111561025757610257610330565b600281111561026857610268610330565b8152905467ffffffffffffffff610100909104811660209283015290820151919250166000036102bd57604051638030b1d360e01b81526001600160a01b03851660048201526024810184905260440161011e565b9392505050565b600080604083850312156102d757600080fd5b82356001600160a01b03811681146102ee57600080fd5b946020939093013593505050565b6000806040838503121561030f57600080fd5b8235915060208301356003811061032557600080fd5b809150509250929050565b634e487b7160e01b600052602160045260246000fd5b6003811061036457634e487b7160e01b600052602160045260246000fd5b9052565b600060408201905061037b828451610346565b60209283015167ffffffffffffffff16919092015290565b604081016103a18285610346565b67ffffffffffffffff83166020830152939250505056fea2646970667358221220e7108a00f098f29b9a233dfc2e7c05bc130fde191f17b3eae4900884850198ce64736f6c63430008140033","opcodes":"PUSH1 0x80 PUSH1 0x40 MSTORE CALLVALUE DUP1 ISZERO PUSH2 0x10 JUMPI PUSH1 0x0 DUP1 REVERT JUMPDEST POP PUSH2 0x3EE DUP1 PUSH2 0x20 PUSH1 0x0 CODECOPY PUSH1 0x0 RETURN INVALID PUSH1 0x80 PUSH1 0x40 MSTORE CALLVALUE DUP1 ISZERO PUSH2 0x10 JUMPI PUSH1 0x0 DUP1 REVERT JUMPDEST POP PUSH1 0x4 CALLDATASIZE LT PUSH2 0x41 JUMPI PUSH1 0x0 CALLDATALOAD PUSH1 0xE0 SHR DUP1 PUSH4 0xA3A382A0 EQ PUSH2 0x46 JUMPI DUP1 PUSH4 0xA4C377A6 EQ PUSH2 0xA0 JUMPI DUP1 PUSH4 0xD828EFA2 EQ PUSH2 0xB5 JUMPI JUMPDEST PUSH1 0x0 DUP1 REVERT JUMPDEST PUSH2 0x8B PUSH2 0x54 CALLDATASIZE PUSH1 0x4 PUSH2 0x2C4 JUMP JUMPDEST PUSH1 0x1 PUSH1 0x1 PUSH1 0xA0 SHL SUB SWAP2 SWAP1 SWAP2 AND PUSH1 0x0 SWAP1 DUP2 MSTORE PUSH1 0x20 DUP2 DUP2 MSTORE PUSH1 0x40 DUP1 DUP4 KECCAK256 SWAP4 DUP4 MSTORE SWAP3 SWAP1 MSTORE KECCAK256 SLOAD PUSH2 0x100 SWAP1 DIV PUSH8 0xFFFFFFFFFFFFFFFF AND ISZERO ISZERO SWAP1 JUMP JUMPDEST PUSH1 0x40 MLOAD SWAP1 ISZERO ISZERO DUP2 MSTORE PUSH1 0x20 ADD JUMPDEST PUSH1 0x40 MLOAD DUP1 SWAP2 SUB SWAP1 RETURN JUMPDEST PUSH2 0xB3 PUSH2 0xAE CALLDATASIZE PUSH1 0x4 PUSH2 0x2FC JUMP JUMPDEST PUSH2 0xD5 JUMP JUMPDEST STOP JUMPDEST PUSH2 0xC8 PUSH2 0xC3 CALLDATASIZE PUSH1 0x4 PUSH2 0x2C4 JUMP JUMPDEST PUSH2 0x201 JUMP JUMPDEST PUSH1 0x40 MLOAD PUSH2 0x97 SWAP2 SWAP1 PUSH2 0x368 JUMP JUMPDEST PUSH1 0x2 DUP2 DUP2 DUP2 GT ISZERO PUSH2 0xE8 JUMPI PUSH2 0xE8 PUSH2 0x330 JUMP JUMPDEST PUSH1 0xFF AND GT ISZERO PUSH2 0x127 JUMPI DUP1 PUSH1 0x2 DUP2 GT ISZERO PUSH2 0x103 JUMPI PUSH2 0x103 PUSH2 0x330 JUMP JUMPDEST PUSH1 0x40 MLOAD PUSH4 0x10B160CB PUSH1 0xE3 SHL DUP2 MSTORE PUSH1 0xFF SWAP1 SWAP2 AND PUSH1 0x4 DUP3 ADD MSTORE PUSH1 0x24 ADD JUMPDEST PUSH1 0x40 MLOAD DUP1 SWAP2 SUB SWAP1 REVERT JUMPDEST PUSH1 0x0 TIMESTAMP SWAP1 POP PUSH1 0x40 MLOAD DUP1 PUSH1 0x40 ADD PUSH1 0x40 MSTORE DUP1 DUP4 PUSH1 0x2 DUP2 GT ISZERO PUSH2 0x149 JUMPI PUSH2 0x149 PUSH2 0x330 JUMP JUMPDEST DUP2 MSTORE PUSH8 0xFFFFFFFFFFFFFFFF DUP4 AND PUSH1 0x20 SWAP2 DUP3 ADD MSTORE CALLER PUSH1 0x0 SWAP1 DUP2 MSTORE DUP1 DUP3 MSTORE PUSH1 0x40 DUP1 DUP3 KECCAK256 DUP8 DUP4 MSTORE SWAP1 SWAP3 MSTORE KECCAK256 DUP2 MLOAD DUP2 SLOAD DUP3 SWAP1 PUSH1 0xFF NOT AND PUSH1 0x1 DUP4 PUSH1 0x2 DUP2 GT ISZERO PUSH2 0x18F JUMPI PUSH2 0x18F PUSH2 0x330 JUMP JUMPDEST MUL OR SWAP1 SSTORE POP PUSH1 0x20 SWAP2 SWAP1 SWAP2 ADD MLOAD DUP2 SLOAD PUSH8 0xFFFFFFFFFFFFFFFF SWAP1 SWAP2 AND PUSH2 0x100 MUL PUSH9 0xFFFFFFFFFFFFFFFF00 NOT SWAP1 SWAP2 AND OR SWAP1 SSTORE PUSH1 0x40 MLOAD DUP4 SWAP1 CALLER SWAP1 PUSH32 0x19370DC643CAA2362D6539BCE3534A2D2516F9C6A335517420D6175325DF3E21 SWAP1 PUSH2 0x1F4 SWAP1 DUP7 SWAP1 DUP7 SWAP1 PUSH2 0x393 JUMP JUMPDEST PUSH1 0x40 MLOAD DUP1 SWAP2 SUB SWAP1 LOG3 POP POP POP JUMP JUMPDEST PUSH1 0x40 DUP1 MLOAD DUP1 DUP3 ADD SWAP1 SWAP2 MSTORE PUSH1 0x0 DUP1 DUP3 MSTORE PUSH1 0x20 DUP3 ADD MSTORE PUSH1 0x1 PUSH1 0x1 PUSH1 0xA0 SHL SUB DUP4 AND PUSH1 0x0 SWAP1 DUP2 MSTORE PUSH1 0x20 DUP2 DUP2 MSTORE PUSH1 0x40 DUP1 DUP4 KECCAK256 DUP6 DUP5 MSTORE SWAP1 SWAP2 MSTORE DUP1 DUP3 KECCAK256 DUP2 MLOAD DUP1 DUP4 ADD SWAP1 SWAP3 MSTORE DUP1 SLOAD DUP3 SWAP1 PUSH1 0xFF AND PUSH1 0x2 DUP2 GT ISZERO PUSH2 0x257 JUMPI PUSH2 0x257 PUSH2 0x330 JUMP JUMPDEST PUSH1 0x2 DUP2 GT ISZERO PUSH2 0x268 JUMPI PUSH2 0x268 PUSH2 0x330 JUMP JUMPDEST DUP2 MSTORE SWAP1 SLOAD PUSH8 0xFFFFFFFFFFFFFFFF PUSH2 0x100 SWAP1 SWAP2 DIV DUP2 AND PUSH1 0x20 SWAP3 DUP4 ADD MSTORE SWAP1 DUP3 ADD MLOAD SWAP2 SWAP3 POP AND PUSH1 0x0 SUB PUSH2 0x2BD JUMPI PUSH1 0x40 MLOAD PUSH4 0x8030B1D3 PUSH1 0xE0 SHL DUP2 MSTORE PUSH1 0x1 PUSH1 0x1 PUSH1 0xA0 SHL SUB DUP6 AND PUSH1 0x4 DUP3 ADD MSTORE PUSH1 0x24 DUP2 ADD DUP5 SWAP1 MSTORE PUSH1 0x44 ADD PUSH2 0x11E JUMP JUMPDEST SWAP4 SWAP3 POP POP POP JUMP JUMPDEST PUSH1 0x0 DUP1 PUSH1 0x40 DUP4 DUP6 SUB SLT ISZERO PUSH2 0x2D7 JUMPI PUSH1 0x0 DUP1 REVERT JUMPDEST DUP3 CALLDATALOAD PUSH1 0x1 PUSH1 0x1 PUSH1 0xA0 SHL SUB DUP2 AND DUP2 EQ PUSH2 0x2EE JUMPI PUSH1 0x0 DUP1 REVERT JUMPDEST SWAP5 PUSH1 0x20 SWAP4 SWAP1 SWAP4 ADD CALLDATALOAD SWAP4 POP POP POP JUMP JUMPDEST PUSH1 0x0 DUP1 PUSH1 0x40 DUP4 DUP6 SUB SLT ISZERO PUSH2 0x30F JUMPI PUSH1 0x0 DUP1 REVERT JUMPDEST DUP3 CALLDATALOAD SWAP2 POP PUSH1 0x20 DUP4 ADD CALLDATALOAD PUSH1 0x3 DUP2 LT PUSH2 0x325 JUMPI PUSH1 0x0 DUP1 REVERT JUMPDEST DUP1 SWAP2 POP POP SWAP3 POP SWAP3 SWAP1 POP JUMP JUMPDEST PUSH4 0x4E487B71 PUSH1 0xE0 SHL PUSH1 0x0 MSTORE PUSH1 0x21 PUSH1 0x4 MSTORE PUSH1 0x24 PUSH1 0x0 REVERT JUMPDEST PUSH1 0x3 DUP2 LT PUSH2 0x364 JUMPI PUSH4 0x4E487B71 PUSH1 0xE0 SHL PUSH1 0x0 MSTORE PUSH1 0x21 PUSH1 0x4 MSTORE PUSH1 0x24 PUSH1 0x0 REVERT JUMPDEST SWAP1 MSTORE JUMP JUMPDEST PUSH1 0x0 PUSH1 0x40 DUP3 ADD SWAP1 POP PUSH2 0x37B DUP3 DUP5 MLOAD PUSH2 0x346 JUMP JUMPDEST PUSH1 0x20 SWAP3 DUP4 ADD MLOAD PUSH8 0xFFFFFFFFFFFFFFFF AND SWAP2 SWAP1 SWAP3 ADD MSTORE SWAP1 JUMP JUMPDEST PUSH1 0x40 DUP2 ADD PUSH2 0x3A1 DUP3 DUP6 PUSH2 0x346 JUMP JUMPDEST PUSH8 0xFFFFFFFFFFFFFFFF DUP4 AND PUSH1 0x20 DUP4 ADD MSTORE SWAP4 SWAP3 POP POP POP JUMP INVALID LOG2 PUSH5 0x6970667358 0x22 SLT KECCAK256 0xE7 LT DUP11 STOP CREATE SWAP9 CALLCODE SWAP12 SWAP11 0x23 RETURNDATASIZE 0xFC 0x2E PUSH29 0x5BC130FDE191F17B3EAE4900884850198CE64736F6C63430008140033 "},"methodIdentifiers":{"getTopicView(address,bytes32)":"d828efa2","hasTopicView(address,bytes32)":"a3a382a0","setTopicView(bytes32,uint8)":"a4c377a6"}}}}}