{
  "_format": "hh-sol-artifact-1",
  "contractName": "ViewProfile",
  "sourceName": "contracts/ViewProfile.sol",
  "abi": [
    {
      "inputs": [
        {
          "internalType": "uint8",
          "name": "value",
          "type": "uint8"
        }
      ],
      "name": "InvalidSentiment",
      "type": "error"
    },
    {
      "inputs": [
        {
          "internalType": "address",
          "name": "user",
          "type": "address"
        },
        {
          "internalType": "bytes32",
          "name": "topicId",
          "type": "bytes32"
        }
      ],
      "name": "TopicNotSet",
      "type": "error"
    },
    {
      "anonymous": false,
      "inputs": [
        {
          "indexed": true,
          "internalType": "address",
          "name": "user",
          "type": "address"
        },
        {
          "indexed": true,
          "internalType": "bytes32",
          "name": "topicId",
          "type": "bytes32"
        },
        {
          "indexed": false,
          "internalType": "enum ViewProfile.Sentiment",
          "name": "sentiment",
          "type": "uint8"
        },
        {
          "indexed": false,
          "internalType": "uint64",
          "name": "updatedAt",
          "type": "uint64"
        }
      ],
      "name": "TopicViewUpdated",
      "type": "event"
    },
    {
      "inputs": [
        {
          "internalType": "address",
          "name": "user",
          "type": "address"
        },
        {
          "internalType": "bytes32",
          "name": "topicId",
          "type": "bytes32"
        }
      ],
      "name": "getTopicView",
      "outputs": [
        {
          "components": [
            {
              "internalType": "enum ViewProfile.Sentiment",
              "name": "sentiment",
              "type": "uint8"
            },
            {
              "internalType": "uint64",
              "name": "updatedAt",
              "type": "uint64"
            }
          ],
          "internalType": "struct ViewProfile.TopicView",
          "name": "",
          "type": "tuple"
        }
      ],
      "stateMutability": "view",
      "type": "function"
    },
    {
      "inputs": [
        {
          "internalType": "address",
          "name": "user",
          "type": "address"
        },
        {
          "internalType": "bytes32",
          "name": "topicId",
          "type": "bytes32"
        }
      ],
      "name": "hasTopicView",
      "outputs": [
        {
          "internalType": "bool",
          "name": "",
          "type": "bool"
        }
      ],
      "stateMutability": "view",
      "type": "function"
    },
    {
      "inputs": [
        {
          "internalType": "bytes32",
          "name": "topicId",
          "type": "bytes32"
        },
        {
          "internalType": "enum ViewProfile.Sentiment",
          "name": "sentiment",
          "type": "uint8"
        }
      ],
      "name": "setTopicView",
      "outputs": [],
      "stateMutability": "nonpayable",
      "type": "function"
    }
  ],
  "bytecode": "0x608060405234801561001057600080fd5b506103ee806100206000396000f3fe608060405234801561001057600080fd5b50600436106100415760003560e01c8063a3a382a014610046578063a4c377a6146100a0578063d828efa2146100b5575b600080fd5b61008b6100543660046102c4565b6001600160a01b03919091166000908152602081815260408083209383529290522054610100900467ffffffffffffffff16151590565b60405190151581526020015b60405180910390f35b6100b36100ae3660046102fc565b6100d5565b005b6100c86100c33660046102c4565b610201565b6040516100979190610368565b600281818111156100e8576100e8610330565b60ff1611156101275780600281111561010357610103610330565b6040516310b160cb60e31b815260ff90911660048201526024015b60405180910390fd5b6000429050604051806040016040528083600281111561014957610149610330565b815267ffffffffffffffff831660209182015233600090815280825260408082208783529092522081518154829060ff1916600183600281111561018f5761018f610330565b021790555060209190910151815467ffffffffffffffff9091166101000268ffffffffffffffff0019909116179055604051839033907f19370dc643caa2362d6539bce3534a2d2516f9c6a335517420d6175325df3e21906101f49086908690610393565b60405180910390a3505050565b60408051808201909152600080825260208201526001600160a01b03831660009081526020818152604080832085845290915280822081518083019092528054829060ff16600281111561025757610257610330565b600281111561026857610268610330565b8152905467ffffffffffffffff610100909104811660209283015290820151919250166000036102bd57604051638030b1d360e01b81526001600160a01b03851660048201526024810184905260440161011e565b9392505050565b600080604083850312156102d757600080fd5b82356001600160a01b03811681146102ee57600080fd5b946020939093013593505050565b6000806040838503121561030f57600080fd5b8235915060208301356003811061032557600080fd5b809150509250929050565b634e487b7160e01b600052602160045260246000fd5b6003811061036457634e487b7160e01b600052602160045260246000fd5b9052565b600060408201905061037b828451610346565b60209283015167ffffffffffffffff16919092015290565b604081016103a18285610346565b67ffffffffffffffff83166020830152939250505056fea2646970667358221220e7108a00f098f29b9a233dfc2e7c05bc130fde191f17b3eae4900884850198ce64736f6c63430008140033",
  "linkReferences": {},
  "deployedLinkReferences": {}
}